:0400000080312B28F8
:100008007E1480312000931C1A280130F0007008FB
:10001800EF00031022008D1F0314031C1628220072
:100028008D17182822008D1320009310931D29285E
:100038009311210020083B009E00210021083B006D
:100048009F00210022083B00A0007E10090080319B
:100058002D282000ED01EE01EF01A03084000030D2
:1000680085002A308631DB267E10200084318D2CD5
:10007800BF003008C4003108C5003208C600330884
:10008800C7003408C8003508C9003608CA00370850
:10009800CB004430860000308700473FB800B81FC7
:1000A80057280130582800302000B900BA01390813
:1000B800C2003A08C3004208430403198128C4094E
:1000C800C509C609C709C809C909CA09CB09C40AA3
:1000D800031D8128C50A031D8128C60A031D81281E
:1000E800C70A031D8128C80A031D8128C90A031DE0
:1000F8008128CA0A031D8128CB0A2100A91B892847
:10010800FD302000ED05FF30EE0521002908803A7A
:100118002000B80080303802031D952801302100E6
:10012800280203189D2801302000BD000030BE00C1
:10013800A528210029082000BE0021002808200049
:10014800BD00210027082000C1002100260820004A
:10015800C00042084304031DB3286D1DB728FF30B3
:10016800C007FF30C13D1F30CC000030CD0021005A
:10017800C9014929200044084504460447044804A5
:1001880049044A044B04031DE3283E08803AB8009A
:1001980080303802031DD22801303D020318E328BD
:1001A80020004108803AB80080303802031DDE285C
:1001B80001304002031C55292000ED1C5529FF3051
:1001C8002000CC07FF30CD3D0A30A000A101A201DC
:1001D800A301A401A501A601A7014408A800450898
:1001E800A9004608AA004708AB004808AC0049081F
:1001F800AD004A08AE004B08AF008331B12380310F
:100208002108F5002008F4008631A1268031740801
:10021800303E2000B8004C08AA3E86008701380806
:100228008100FF30BD07FF30BE3DFF30C007FF3003
:10023800C13D0A30A000A101A201A301A401A501AA
:10024800A601A7014408A8004508A9004608AA0075
:100258004708AB004808AC004908AD004A08AE00A2
:100268004B08AF008231BE2280312008C40021082B
:10027800C5002208C6002308C7002408C8002508AE
:10028800C9002608CA002708CB0020004D08803A7C
:10029800B80080303802031D532901304C0203187E
:1002A800BE28200042084304031D5C296D1D7229E5
:1002B800FF30CC07FF30CD3D42084304031D6629BB
:1002C8002B3067292D30BB000030BC003B08B8003C
:1002D8004C08AA3E86008701380881004C08AA3ECF
:1002E800B8003808A7004108A9004008A8003F083E
:1002F800853159252808B1002708B0000800DD001D
:100308004E0886008701403FD000413FD100500889
:100318008400510885001200253A031D9B2A4E08C7
:10032800860087010130810741310318810A2100C5
:10033800A601A7012000ED01EE01FF302100A80071
:10034800FF30A90020004E0886008701403FD000FA
:10035800413FD10050088400510885001200643ADA
:100368000319C5294E0886008701403FD000413F48
:10037800D10050088400510885001200693A031D15
:10038800FE294E0886008701013081074131031894
:10039800810A4F0886008701010884008501023020
:1003A8008107003FD000013FD1005008D500510817
:1003B800D600890D893B8909D700D800D900DA0011
:1003C800DB00DC005508B0005608B1005708B20041
:1003D8005808B3005908B4005A08B5005B08B600BD
:1003E8005C08B7005D0880313C203108CF00300838
:1003F800CE0008004E0886008701403FF100413FCB
:10040800F200E630F3008630F4000230F5000030E8
:10041800F6008531072581317108720403192A2AEB
:100428004E0886008701403FF100413FF200E93065
:10043800F3008630F4000230F5000030F600853114
:100448000725813171087204031D692A4E08860048
:1004580087010230810741310318810A4F0886005D
:10046800870101088400850104308107003FD0001E
:10047800013FD100023FD200033FD3005008D5000E
:100488005108D6005208D7005308D8000030D81BAE
:10049800FF30D900DA00DB00DC005508B000560850
:1004A800B1005708B2005808B3005908B4005A08F8
:1004B800B5005B08B6005C08B7005D0880313C20D9
:1004C8003108CF003008CE0008004E0886008701AA
:1004D800403FD000413FD1005008840051088500BA
:1004E8001200253A031D902A4E0886008701013024
:1004F800810741310318810A2530F2000030F300EA
:100508005D08D0005008F4008531E6250130200050
:10051800CE000030CF0008004E0886008701013069
:10052800810741310318810ACE01CF0108004E0826
:1005380086008701403FD000413FD1005008840029
:10054800510885000008D200D3015208F200530870
:10055800F3005D08D4005408F4008531E6258131A4
:1005680020004E08860087010130810741310318B9
:10057800810A8A2AF3012030860000308700473F2D
:10058800F100F11FE82A2000A009A109A209A30986
:10059800A409A509A609A709A00A031DE62AA10A14
:1005A800031DE62AA20A031DE62AA30A031DE62A5A
:1005B800A40A031DE62AA50A031DE62AA60A031DA6
:1005C800E62AA70AF301F30A2830860000308700DC
:1005D800473FF100F11F132B2000A809A909AA0918
:1005E800AB09AC09AD09AE09AF09A80A031D0F2B69
:1005F800A90A031D0F2BAA0A031D0F2BAB0A031D03
:100608000F2BAC0A031D0F2BAD0A031D0F2BAE0ACF
:10061800031D0F2BAF0A0130F1007108F306743087
:100628008600003087000830F10000301E00F10B12
:100638001A2B200020082104220423042404250462
:100648002604270403197E2BF201F20AA71B392B73
:10065800A035A10DA20DA30DA40DA50DA60DA70DE6
:100668000130F1007108F2072A2BF435F50DF60D6B
:10067800F70DF80DF90DFA0DFB0D27082F02031DD4
:100688005F2B26082E02031D5F2B25082D02031D54
:100698005F2B24082C02031D5F2B23082B02031D4C
:1006A8005F2B22082A02031D5F2B21082902031D44
:1006B8005F2B20082802031C722B2008A80221089F
:1006C800A93B2208AA3B2308AB3B2408AC3B2508DE
:1006D800AD3B2608AE3B2708AF3B7414A736A60CE3
:1006E800A50CA40CA30CA20CA10CA00C0130F202C6
:1006F800031D392B730803199F2BF409F509F60913
:10070800F709F809F909FA09FB09F40A031D9F2BEF
:10071800F50A031D9F2BF60A031D9F2BF70A031DDD
:100728009F2BF80A031D9F2BF90A031D9F2BFA0A1A
:10073800031D9F2BFB0A74082000A0007508A10068
:100748007608A2007708A3007808A4007908A50015
:100758007A08A6007B08A7000800F3012830860065
:1007680000308700473FF100F11FDB2B2000A8096C
:10077800A909AA09AB09AC09AD09AE09AF09A80ACC
:10078800031DD92BA90A031DD92BAA0A031DD92B8E
:10079800AB0A031DD92BAC0A031DD92BAD0A031DC7
:1007A800D92BAE0A031DD92BAF0AF301F30A203067
:1007B800860000308700473FF100F11F022C20001F
:1007C800A009A109A209A309A409A509A609A709BD
:1007D800A00A031D022CA10A031D022CA20A031D54
:1007E800022CA30A031D022CA40A031D022CA50A2D
:1007F800031D022CA60A031D022CA70A20002008AC
:1008080021042204230424042504260427040319AC
:100818005A2CF201F20AA71B1E2CA035A10DA20D1D
:10082800A30DA40DA50DA60DA70D0130F1007108AB
:10083800F2070F2C27082F02031D3C2C26082E0236
:10084800031D3C2C25082D02031D3C2C24082C02DA
:10085800031D3C2C23082B02031D3C2C22082A02D2
:10086800031D3C2C21082902031D3C2C20082802CA
:10087800031C4E2C2008A8022108A93B2208AA3BE9
:100888002308AB3B2408AC3B2508AD3B2608AE3B10
:100898002708AF3BA736A60CA50CA40CA30CA20CEA
:1008A800A10CA00C0130F202031D1E2C73080319C1
:1008B8007B2CA809A909AA09AB09AC09AD09AE099D
:1008C800AF09A80A031D7B2CA90A031D7B2CAA0AC1
:1008D800031D7B2CAB0A031D7B2CAC0A031D7B2C50
:1008E800AD0A031D7B2CAE0A031D7B2CAF0A20002A
:1008F8002808A0002908A1002A08A2002B08A300A4
:100908002C08A4002D08A5002E08A6002F08A70073
:10091800080021008D130C1623000C1221000D1362
:100928008E170E1723000E138B170B172100931425
:10093800931586316C2684318631C82684318630F9
:100948003E009000023096009701980199010A3004
:1009580091001430920093019401950104303D00F8
:100968009E003E00901720006F080319B72C8B13C8
:100978000A30F1000030F2000030F3003B000F08AD
:10098800F4001008F5001108F6008531A22584311D
:1009980071082100A0007208A1007308A200A30139
:1009A8002430CA000030CB000030CC000130CD002C
:1009B8002008CA022108CB3B2208CC3B2308CD3BA8
:1009C8004D08A3004C08A2004B08A1004A08A0004B
:1009D8008B17E1302000E6008630E700210023086D
:1009E8002000EB00210022082000EA002100210855
:1009F8002000E900210020082000E8008631B82600
:100A08008431EF01B72C7208F9007108F8007408F6
:100A1800FB007308FA000130F5020030F63B750A56
:100A2800031D412D760A031D412DF101F201080035
:100A38007A0884007B08850012000319482D750880
:100A480076040319482D7A0884007B08850000087D
:100A5800F700780884007908850000087706031DE8
:100A6800482D0130F8070030F93D0130FA07003011
:100A7800FB3D0130F5020030F63B78088400790828
:100A880085001200031D1C2D780884007908850054
:100A98000008F7007A0884007B08850000087702C0
:100AA800F100F201031CF2030800AE006D1C642D76
:100AB8002E08FB007B08FA00270886314826853176
:100AC800A91B6B2D2908AD002808AC006D2DAC01C1
:100AD800AD01AA01AB012B08803AFB002D08803A32
:100AE8007B02031D792D2C082A0203188D2D203036
:100AF800F2000030F30020002E08FB007B08F40011
:100B08008531E625853101302000AA070030AB3D4C
:100B18006F2D20006D18982D2E08FB007B08FA0019
:100B28002708863148268531270886318A262C08E9
:100B38007107A7002D08723DA80008000030F800D2
:100B48000030F9000030FA007308720471040319C8
:100B5800DF2DFB01FB0AF31BBC2D0130F135F20D33
:100B6800F30D890BB22D0130F7007708FB07AF2D85
:100B78000130F835F90DFA0D890BBD2D7308760291
:100B8800031DCC2D72087502031DCC2D710874024B
:100B9800031CD52D7108F4027208F53B7308F63B67
:100BA80078140130F336F20CF10C890BD62D013094
:100BB800FB02031DBC2D7808F1007908F2007A08C1
:100BC800F30008007408031D7408031DEF2D720854
:100BD8008631D42608007408033E86008701160073
:100BE80001040319122E7408033E86008701403F52
:100BF800F500413FF600740A86008701403FF70080
:100C0800413FF8007808803AF9007608803A79027E
:100C1800031D102E7508770203180800740A860051
:100C280087010130810741310318810A0800E30078
:100C38005F08E5005E08E4002100A401A50120008A
:100C48006408840065088500120003193F2E64308B
:100C5800E1006108CE006008E2006208CF00630886
:100C68008131832186314E082100A40720004F08D6
:100C78002100A53D232E210025082000DF002100AA
:100C880024082000DE000800A600A401A50124080D
:100C98002607A0002008860087010108A100210876
:100CA800A3002308031908002308A000A1012008B5
:100CB800F2002108F3007A08A2002208F400853126
:100CC800E625863101302000A4070030A53D4B2ED3
:100CD8003B0098171908F0390238990019170330A2
:100CE8009804FF309500FF309600FF309700991761
:100CF80016303C00A600F0303B00AB052B172A0845
:100D0800FC390138AA00AA17AB170800F5007508C6
:100D1800F3007308F40075088600870101080319B9
:100D28009A2E0130F3007308F5078F2E74087502A8
:100D3800F100F201F11BF20308007508803AF60091
:100D480080307602031DAA2E0130740203180800B1
:100D58007409F6007509F700F60A0319F70A760808
:100D6800F4007708F50008006830FC007C08EC0007
:100D78006708DF006608DE006C30FC007C08E000D5
:100D8800003086311B26080023009E161E159D176D
:100D98009F159C0146309B0012303D00A7000800BB
:100DA800F100710823009A009E180800D82E6400EC
:100DB80080010131890BDC2E003425346C34643415
:100DC8000A3400346C34643400346C3469340034CC
:020000040001F9
:08000000FF3FFF3FFF3FFF3F00
:06000E00FA3FFB3D9F3F9D
:00000001FF
