:0400000080313628ED
:100008007E1480312000931C0E280130F000700807
:10001800FC009310931D2428931121002008003C14
:100028003B009E0021002108031C210F003C3B00DF
:100038009F0021002208031C220F003C3B00A00067
:100048002000131C3428031022008D1F0314031CE6
:10005800302822008D17322822008D13200013101B
:100068007E10090080313828FC012000EE01EF01E4
:10007800A03084000030850032308631D1267E10D1
:1000880020008431982CBF003008C4003108C50016
:100098003208C6003308C7003408C8003508C9004C
:1000A8003608CA003708CB00443086000030870085
:1000B800473FB800B81F622801306328003020008D
:1000C800B900BA013908C2003A08C300420843041B
:1000D80003198C28C409C509C609C709C809C9096B
:1000E800CA09CB09C40A031D8C28C50A031D8C281C
:1000F800C60A031D8C28C70A031D8C28C80A031DBD
:100108008C28C90A031D8C28CA0A031D8C28CB0A0F
:100118002100B11B9428FD302000EE05FF30EF05CB
:1001280021003108803A2000B80080303802031DD1
:10013800A0280130210030020318A828013020002F
:10014800BD000030BE00B028210031082000BE00EC
:10015800210030082000BD0021002F082000C10028
:1001680021002E082000C00042084304031DBE28B9
:100178006E1DC228FF30C007FF30C13D1F30CC00C4
:100188000030CD002100D101542920004408450445
:1001980046044704480449044A044B04031DEE2856
:1001A8003E08803AB80080303802031DDD2801304F
:1001B8003D020318EE2820004108803AB80080303C
:1001C8003802031DE92801304002031C6029200081
:1001D800EE1C6029FF302000CC07FF30CD3D0A30EF
:1001E800A000A101A201A301A401A501A601A701E4
:1001F8004408A8004508A9004608AA004708AB001B
:100208004808AC004908AD004A08AE004B08AF00EA
:100218008331BC2380312108F5002008F4008631A1
:10022800972680317408303E2000B8004C08B23E52
:100238008600870138088100FF30BD07FF30BE3DCA
:10024800FF30C007FF30C13D0A30A000A101A20164
:10025800A301A401A501A601A7014408A800450817
:10026800A9004608AA004708AB004808AC0049089E
:10027800AD004A08AE004B08AF008231C922803178
:100288002008C4002108C5002208C6002308C700AA
:100298002408C8002508C9002608CA002708CB007A
:1002A80020004D08803AB80080303802031D5E29CE
:1002B80001304C020318C928200042084304031DDA
:1002C80067296E1D7D29FF30CC07FF30CD3D4208E0
:1002D8004304031D71292B3072292D30BB000030D7
:1002E800BC003B08B8004C08B23E860087013808BD
:1002F80081004C08B23EB8003808A7004108A900A0
:100308004008A8003F08853153252808B100270870
:10031800B0000800DD004E0886008701403FD0008D
:10032800413FD10050088400510885001200253A49
:10033800031DA62A4E088600870101308107413136
:100348000318810A2100AE01AF012000EE01EF0180
:10035800FF302100B000FF30B10020004E088600B9
:100368008701403FD000413FD10050088400510828
:1003780085001200643A0319D0294E0886008701C7
:10038800403FD000413FD10050088400510885000B
:100398001200693A031D092A4E08860087010130B8
:1003A800810741310318810A4F0886008701010837
:1003B8008400850102308107003FD000013FD10051
:1003C8005008D5005108D600890D893B8909D70006
:1003D800D800D900DA00DB00DC005508B000560868
:1003E800B1005708B2005808B3005908B4005A08B9
:1003F800B5005B08B6005C08B7005D08803147208F
:100408003108CF003008CE0008004E08860087016A
:10041800403FF100413FF200DC30F3008630F40049
:100428000230F5000030F600853101258131710870
:1004380072040319352A4E0886008701403FF100EF
:10044800413FF200DF30F3008630F4000230F5005F
:100458000030F60085310125813171087204031DD1
:10046800742A4E088600870102308107413103183B
:10047800810A4F088600870101088400850104303D
:100488008107003FD000013FD100023FD200033F67
:10049800D3005008D5005108D6005208D700530899
:1004A800D8000030D81BFF30D900DA00DB00DC00B0
:1004B8005508B0005608B1005708B2005808B300F4
:1004C8005908B4005A08B5005B08B6005C08B700C4
:1004D8005D08803147203108CF003008CE00080081
:1004E8004E0886008701403FD000413FD1005008A8
:1004F8008400510885001200253A031D9B2A4E08E6
:10050800860087010130810741310318810A2530AF
:10051800F2000030F3005D08D0005008F400853187
:10052800E02501302000CE000030CF0008004E0842
:10053800860087010130810741310318810ACE0105
:10054800CF0108004E0886008701403FD000413F98
:10055800D10050088400510885000008D200D3015A
:100568005208F2005308F3005D08D4005408F40060
:100578008531E025813120004E0886008701013051
:10058800810741310318810A952AF301203086003A
:1005980000308700473FF100F11FF32A2000A0092F
:1005A800A109A209A309A409A509A609A709A00ADE
:1005B800031DF12AA10A031DF12AA20A031DF12A2B
:1005C800A30A031DF12AA40A031DF12AA50A031D83
:1005D800F12AA60A031DF12AA70AF301F30A283013
:1005E800860000308700473FF100F11F1E2B2000D6
:1005F800A809A909AA09AB09AC09AD09AE09AF094F
:10060800A80A031D1A2BA90A031D1A2BAA0A031DDF
:100618001A2BAB0A031D1A2BAC0A031D1A2BAD0AA1
:10062800031D1A2BAE0A031D1A2BAF0A0130F10065
:100638007108F30674308600003087000830F10036
:1006480000301E00F10B252B200020082104220475
:10065800230424042504260427040319892BF20102
:10066800F20AA71B442BA035A10DA20DA30DA40DC2
:10067800A50DA60DA70D0130F1007108F207352B65
:10068800F435F50DF60DF70DF80DF90DFA0DFB0D16
:1006980027082F02031D6A2B26082E02031D6A2B2A
:1006A80025082D02031D6A2B24082C02031D6A2B22
:1006B80023082B02031D6A2B22082A02031D6A2B1A
:1006C80021082902031D6A2B20082802031C7D2B00
:1006D8002008A8022108A93B2208AA3B2308AB3B13
:1006E8002408AC3B2508AD3B2608AE3B2708AF3BAA
:1006F8007414A736A60CA50CA40CA30CA20CA10C70
:10070800A00C0130F202031D442B73080319AA2B15
:10071800F409F509F609F709F809F909FA09FB09CD
:10072800F40A031DAA2BF50A031DAA2BF60A031DBA
:10073800AA2BF70A031DAA2BF80A031DAA2BF90AEC
:10074800031DAA2BFA0A031DAA2BFB0A7408200012
:10075800A0007508A1007608A2007708A300780811
:10076800A4007908A5007A08A6007B08A70008005D
:10077800F3012830860000308700473FF100F11F61
:10078800E62B2000A809A909AA09AB09AC09AD09FB
:10079800AE09AF09A80A031DE42BA90A031DE42B1F
:1007A800AA0A031DE42BAB0A031DE42BAC0A031DA4
:1007B800E42BAD0A031DE42BAE0A031DE42BAF0A9C
:1007C800F301F30A2030860000308700473FF1002C
:1007D800F11F0D2C2000A009A109A209A309A40951
:1007E800A509A609A709A00A031D0D2CA10A031D26
:1007F8000D2CA20A031D0D2CA30A031D0D2CA40AFF
:10080800031D0D2CA50A031D0D2CA60A031D0D2C76
:10081800A70A200020082104220423042404250414
:10082800260427040319652CF201F20AA71B292CB8
:10083800A035A10DA20DA30DA40DA50DA60DA70D04
:100848000130F1007108F2071A2C27082F02031D46
:10085800472C26082E02031D472C25082D02031DB0
:10086800472C24082C02031D472C23082B02031DA8
:10087800472C22082A02031D472C21082902031DA0
:10088800472C20082802031C592C2008A8022108FC
:10089800A93B2208AA3B2308AB3B2408AC3B25080C
:1008A800AD3B2608AE3B2708AF3BA736A60CA50CE8
:1008B800A40CA30CA20CA10CA00C0130F202031D85
:1008C800292C73080319862CA809A909AA09AB09B8
:1008D800AC09AD09AE09AF09A80A031D862CA90AFF
:1008E800031D862CAA0A031D862CAB0A031D862C21
:1008F800AC0A031D862CAD0A031D862CAE0A031D07
:10090800862CAF0A20002808A0002908A1002A0880
:10091800A2002B08A3002C08A4002D08A5002E086F
:10092800A6002F08A700080021008D138C160C16AE
:1009380023000C1221000D138E17FC30990519089D
:100948008739703899008B170B1793149315131464
:100958001808C0391F3898008631662684318631D8
:10096800BE26843186303E00900002309600970102
:10097800980199010A309100143092009301940172
:10098800950104303D009E003E0090170130210083
:10099800D3005308D2007C080319CF2C1930F1007A
:1009A8000030F2000030F3003B000F08F40010089C
:1009B800F5001108F60085319C2584317108210065
:1009C800A0007208A1007308A200A301D73020007C
:1009D800E6008630E7003B000F082000E8003B00F7
:1009E80010082000E9003B0011082000EA00EB0194
:1009F8008631AE268431FC01CF2C7208F9007108CB
:100A0800F8007408FB007308FA000130F5020030A2
:100A1800F63B750A031D3B2D760A031D3B2DF1019C
:100A2800F20108007A0884007B0885001200031987
:100A3800422D750876040319422D7A0884007B0834
:100A480085000008F7007808840079088500000808
:100A58007706031D422D0130F8070030F93D0130BB
:100A6800FA070030FB3D0130F5020030F63B78080C
:100A78008400790885001200031D162D780884006B
:100A8800790885000008F7007A0884007B0885004B
:100A980000087702F100F201031CF2030800AE001F
:100AA8006E1C5E2D2E08FB007B08FA002708863195
:100AB80042268531A91B652D2908AD002808AC0000
:100AC800672DAC01AD01AA01AB012B08803AFB00F0
:100AD8002D08803A7B02031D732D2C082A02031867
:100AE800872D2030F2000030F30020002E08FB0094
:100AF8007B08F4008531E025853101302000AA0704
:100B08000030AB3D692D20006E18922D2E08FB0099
:100B18007B08FA0027088631422685312708863166
:100B280080262C087107A7002D08723DA800080030
:100B38000030F8000030F9000030FA007308720441
:100B480071040319D92DFB01FB0AF31BB62D0130E3
:100B5800F135F20DF30D890BAC2D0130F700770854
:100B6800FB07A92D0130F835F90DFA0D890BB72DC2
:100B780073087602031DC62D72087502031DC62D63
:100B880071087402031CCF2D7108F4027208F53B3A
:100B98007308F63B78140130F336F20CF10C890B2C
:100BA800D02D0130FB02031DB62D7808F10079081D
:100BB800F2007A08F30008007408031D7408031D86
:100BC800E92D72088631CA2608007408033E86009B
:100BD80087011600010403190C2E7408033E8600D1
:100BE8008701403FF500413FF600740A86008701FF
:100BF800403FF700413FF8007808803AF90076084E
:100C0800803A7902031D0A2E750877020318080036
:100C1800740A860087010130810741310318810A6F
:100C28000800E3005F08E5005E08E4002100AC016D
:100C3800AD012000640884006508850012000319CE
:100C4800392E6430E1006108CE006008E2006208D5
:100C5800CF00630881318E2186314E082100AC0710
:100C680020004F082100AD3D1D2E21002D08200039
:100C7800DF0021002C082000DE000800A600A401E7
:100C8800A50124082607A00020088600870101087E
:100C9800A1002108A3002308031908002308A000C5
:100CA800A1012008F2002108F3007A08A200220816
:100CB800F4008531E025863101302000A40700309A
:100CC800A53D452E3B0098171908F03902389900C0
:100CD800191703309804FF309500FF309600FF3055
:100CE80097009917F030AB052B172A08FC39013803
:100CF800AA00AA17AB170800F5007508F3007308D7
:100D0800F40075088600870101080319902E013048
:100D1800F3007308F507852E74087502F100F201D7
:100D2800F11BF20308007508803AF600803076025D
:100D3800031DA02E01307402031808007409F60080
:100D48007509F700F60A0319F70A7608F400770818
:100D5800F50008006830EC006C08ED006708DF005B
:100D68006608DE006D30EC006C08E000003086316B
:100D78001526080023009E161E159D179F159C0119
:100D880046309B0012303D00A7000800F1007108B2
:100D980023009A009E180800CE2E640080010131BD
:100DA800890BD22E003425346C3464340A34003470
:0C0DB8006C34643400346C346934003452
:020000040001F9
:08000000FF3FFF3FFF3FFF3F00
:06000E00FC2FFB3D9F3FAB
:00000001FF
