:0400000080313228F1
:100008007E1480312000931C1A280130F0007008FB
:10001800EF00031022008D1F0314031C1628220072
:100028008D17182822008D1320009310931D302857
:10003800931121002008003C3B009E00210021086C
:10004800031C210F003C3B009F0021002208031CD9
:10005800220F003C3B00A0007E10090080313428AC
:100068002000ED01EE01EF01A03084000030850092
:100078002A308631C7267E1020008431942CBF0098
:100088003008C4003108C5003208C6003308C7006C
:100098003408C8003508C9003608CA003708CB003C
:1000A8004430860000308700473FB800B81F5E28FC
:1000B80001305F2800302000B900BA013908C200B9
:1000C8003A08C3004208430403198828C409C5092B
:1000D800C609C709C809C909CA09CB09C40A031D41
:1000E8008828C50A031D8828C60A031D8828C70A48
:1000F800031D8828C80A031D8828C90A031D8828E3
:10010800CA0A031D8828CB0A2100A91B9028FD30A4
:100118002000ED05FF30EE0521002908803A200077
:10012800B80080303802031D9C28013021002802C5
:100138000318A42801302000BD000030BE00AC2800
:10014800210029082000BE00210028082000BD0049
:10015800210027082000C100210026082000C00037
:1001680042084304031DBA286D1DBE28FF30C0078E
:10017800FF30C13D1F30CC000030CD002100C90147
:10018800502920004408450446044704480449040B
:100198004A044B04031DEA283E08803AB800803020
:1001A8003802031DD92801303D020318EA2820002F
:1001B8004108803AB80080303802031DE528013034
:1001C8004002031C5C292000ED1C5C29FF30200044
:1001D800CC07FF30CD3D0A30A000A101A201A30148
:1001E800A401A501A601A7014408A8004508A90083
:1001F8004608AA004708AB004808AC004908AD000B
:100208004A08AE004B08AF008331B823803121087B
:10021800F5002008F40086318D2680317408303EC0
:100228002000B8004C08AA3E8600870138088100E3
:10023800FF30BD07FF30BE3DFF30C007FF30C13D76
:100248000A30A000A101A201A301A401A501A601F1
:10025800A7014408A8004508A9004608AA004708BD
:10026800AB004808AC004908AD004A08AE004B088E
:10027800AF008231C52280312008C4002108C500A2
:100288002208C6002308C7002408C8002508C9009A
:100298002608CA002708CB0020004D08803AB8007D
:1002A80080303802031D5A2901304C020318C52832
:1002B800200042084304031D63296D1D7929FF307E
:1002C800CC07FF30CD3D42084304031D6D292B3078
:1002D8006E292D30BB000030BC003B08B8004C082C
:1002E800AA3E86008701380881004C08AA3EB8005B
:1002F8003808A7004108A9004008A8003F08853130
:1003080049252808B1002708B0000800DD004E087C
:1003180086008701403FD000413FD100500884004B
:10032800510885001200253A031DA22A4E088600AE
:1003380087010130810741310318810A2100A60194
:10034800A7012000ED01EE01FF302100A800FF30D9
:10035800A90020004E0886008701403FD000413F99
:10036800D10050088400510885001200643A03192E
:10037800CC294E0886008701403FD000413FD1007C
:1003880050088400510885001200693A031D052AA7
:100398004E08860087010130810741310318810A20
:1003A8004F08860087010108840085010230810713
:1003B800003FD000013FD1005008D5005108D600B9
:1003C800890D893B8909D700D800D900DA00DB00FC
:1003D800DC005508B0005608B1005708B2005808AC
:1003E800B3005908B4005A08B5005B08B6005C08A9
:1003F800B7005D08803143203108CF003008CE00B7
:1004080008004E0886008701403FF100413FF20096
:10041800D230F3008630F4000230F5000030F600E8
:100428008431F7248131710872040319312A4E0886
:1004380086008701403FF100413FF200D530F300CC
:100448008630F4000230F5000030F6008431F724DD
:10045800813171087204031D702A4E0886008701D5
:100468000230810741310318810A4F08860087014D
:1004780001088400850104308107003FD000013F56
:10048800D100023FD200033FD3005008D5005108E5
:10049800D6005208D7005308D8000030D81BFF30C8
:1004A800D900DA00DB00DC005508B0005608B100BE
:1004B8005708B2005808B3005908B4005A08B500E4
:1004C8005B08B6005C08B7005D088031432031083E
:1004D800CF003008CE0008004E0886008701403F54
:1004E800D000413FD1005008840051088500120017
:1004F800253A031D972A4E08860087010130810797
:1005080041310318810A2530F2000030F3005D08FC
:10051800D0005008F4008531D62501302000CE00E7
:100528000030CF0008004E0886008701013081079F
:1005380041310318810ACE01CF0108004E08860018
:100548008701403FD000413FD10050088400510846
:1005580085000008D200D3015208F2005308F300C6
:100568005D08D4005408F4008531D6258131200077
:100578004E08860087010130810741310318810A3E
:10058800912AF3012030860000308700473FF100B0
:10059800F11FEF2A2000A009A109A209A309A409B3
:1005A800A509A609A709A00A031DED2AA10A031D8A
:1005B800ED2AA20A031DED2AA30A031DED2AA40AA7
:1005C800031DED2AA50A031DED2AA60A031DED2A1F
:1005D800A70AF301F30A2830860000308700473F56
:1005E800F100F11F1A2B2000A809A909AA09AB09D3
:1005F800AC09AD09AE09AF09A80A031D162BA90A53
:10060800031D162BAA0A031D162BAB0A031D162B56
:10061800AC0A031D162BAD0A031D162BAE0A031DCB
:10062800162BAF0A0130F1007108F306743086000A
:10063800003087000830F10000301E00F10B212B3C
:10064800200020082104220423042404250426046D
:1006580027040319852BF201F20AA71B402BA035AA
:10066800A10DA20DA30DA40DA50DA60DA70D01307A
:10067800F1007108F207312BF435F50DF60DF70D81
:10068800F80DF90DFA0DFB0D27082F02031D662B37
:1006980026082E02031D662B25082D02031D662B36
:1006A80024082C02031D662B23082B02031D662B2E
:1006B80022082A02031D662B21082902031D662B26
:1006C80020082802031C792B2008A8022108A93B2E
:1006D8002208AA3B2308AB3B2408AC3B2508AD3BCA
:1006E8002608AE3B2708AF3B7414A736A60CA50C0A
:1006F800A40CA30CA20CA10CA00C0130F202031D47
:10070800402B73080319A62BF409F509F609F70914
:10071800F809F909FA09FB09F40A031DA62BF50AD9
:10072800031DA62BF60A031DA62BF70A031DA62BED
:10073800F80A031DA62BF90A031DA62BFA0A031DA6
:10074800A62BFB0A74082000A0007508A1007608F3
:10075800A2007708A3007808A4007908A5007A0801
:10076800A6007B08A7000800F301283086000030A7
:100778008700473FF100F11FE22B2000A809A909D3
:10078800AA09AB09AC09AD09AE09AF09A80A031D4E
:10079800E02BA90A031DE02BAA0A031DE02BAB0AD4
:1007A800031DE02BAC0A031DE02BAD0A031DE02B53
:1007B800AE0A031DE02BAF0AF301F30A20308600CE
:1007C80000308700473FF100F11F092C2000A009E5
:1007D800A109A209A309A409A509A609A709A00AAC
:1007E800031D092CA10A031D092CA20A031D092CAB
:1007F800A30A031D092CA40A031D092CA50A031D1D
:10080800092CA60A031D092CA70A20002008210488
:100818002204230424042504260427040319612C34
:10082800F201F20AA71B252CA035A10DA20DA30DDC
:10083800A40DA50DA60DA70D0130F1007108F20752
:10084800162C27082F02031D432C26082E02031DF1
:10085800432C25082D02031D432C24082C02031DBC
:10086800432C23082B02031D432C22082A02031DB4
:10087800432C21082902031D432C20082802031CAD
:10088800552C2008A8022108A93B2208AA3B2308C6
:10089800AB3B2408AC3B2508AD3B2608AE3B2708FC
:1008A800AF3BA736A60CA50CA40CA30CA20CA10C5C
:1008B800A00C0130F202031D252C73080319822CA9
:1008C800A809A909AA09AB09AC09AD09AE09AF097C
:1008D800A80A031D822CA90A031D822CAA0A031D3B
:1008E800822CAB0A031D822CAC0A031D822CAD0A94
:1008F800031D822CAE0A031D822CAF0A2000280893
:10090800A0002908A1002A08A2002B08A3002C088F
:10091800A4002D08A5002E08A6002F08A70008008F
:1009280021008D130C1623000C1221000D138E17B5
:10093800FC30990519088739703899008B170B17FF
:10094800931493151808C0391F38980086315C260F
:1009580084318631B426843186303E0090000230DE
:1009680096009701980199010A309100143092007D
:1009780093019401950104303D009E003E009017BC
:1009880020006F080319C42C1930F1000030F20060
:100998000030F3003B000F08F4001008F5001108C0
:1009A800F60085319225843171082100A000720873
:1009B800A1007308A200A301CD302000E600863014
:1009C800E7003B000F082000E8003B00100820006B
:1009D800E9003B0011082000EA00EB018631A4265B
:1009E8008431EF01C42C7208F9007108F80074080A
:1009F800FB007308FA000130F5020030F63B750A77
:100A0800031D312D760A031D312DF101F201080075
:100A18007A0884007B08850012000319382D7508B0
:100A280076040319382D7A0884007B0885000008AD
:100A3800F700780884007908850000087706031D08
:100A4800382D0130F8070030F93D0130FA07003041
:100A5800FB3D0130F5020030F63B78088400790848
:100A680085001200031D0C2D780884007908850084
:100A78000008F7007A0884007B08850000087702E0
:100A8800F100F201031CF2030800AE006D1C542DA6
:100A98002E08FB007B08FA002708863138268531A6
:100AA800A91B5B2D2908AD002808AC005D2DAC0101
:100AB800AD01AA01AB012B08803AFB002D08803A52
:100AC8007B02031D692D2C082A0203187D2D203076
:100AD800F2000030F30020002E08FB007B08F40031
:100AE8008531D625853101302000AA070030AB3D7D
:100AF8005F2D20006D18882D2E08FB007B08FA005A
:100B080027088631382685312708863176262C082D
:100B18007107A7002D08723DA80008000030F800F2
:100B28000030F9000030FA007308720471040319E8
:100B3800CF2DFB01FB0AF31BAC2D0130F135F20D73
:100B4800F30D890BA22D0130F7007708FB079F2DC5
:100B58000130F835F90DFA0D890BAD2D73087602C1
:100B6800031DBC2D72087502031DBC2D710874028B
:100B7800031CC52D7108F4027208F53B7308F63B97
:100B880078140130F336F20CF10C890BC62D0130C4
:100B9800FB02031DAC2D7808F1007908F2007A08F1
:100BA800F30008007408031D7408031DDF2D720884
:100BB8008631C02608007408033E860087011600A7
:100BC80001040319022E7408033E86008701403F82
:100BD800F500413FF600740A86008701403FF700A0
:100BE800413FF8007808803AF9007608803A79029F
:100BF800031D002E7508770203180800740A860082
:100C080087010130810741310318810A0800E30098
:100C18005F08E5005E08E4002100A401A5012000AA
:100C28006408840065088500120003192F2E6430BB
:100C3800E1006108CE006008E2006208CF006308A6
:100C480081318A2186314E082100A40720004F08EF
:100C58002100A53D132E210025082000DF002100DA
:100C680024082000DE000800A600A401A50124082D
:100C78002607A0002008860087010108A100210896
:100C8800A3002308031908002308A000A1012008D5
:100C9800F2002108F3007A08A2002208F400853146
:100CA800D625863101302000A4070030A53D3B2E13
:100CB8003B0098171908F0390238990019170330C2
:100CC8009804FF309500FF309600FF309700991781
:100CD800F030AB052B172A08FC390138AA00AA17EF
:100CE800AB170800F5007508F3007308F4007508E1
:100CF8008600870101080319862E0130F300730866
:100D0800F5077B2E74087502F100F201F11BF2035E
:100D180008007508803AF60080307602031D962E8A
:100D280001307402031808007409F6007509F70009
:100D3800F60A0319F70A7608F4007708F5000800A0
:100D48006830FC007C08EC006708DF006608DE00FD
:100D58006C30FC007C08E000003086310B2608006F
:100D680023009E161E159D179F159C0146309B005B
:100D780012303D00A7000800F100710823009A0016
:100D88009E180800C42E640080010131890BC82E0A
:100D9800003425346C3464340A3400346C346434DC
:080DA80000346C34693400349E
:020000040001F9
:08000000FF3FFF3FFF3FFF3F00
:06000E00FC2FFB3D9F3FAB
:00000001FF
