:0400000080314628DD
:100008007E1480312000931C0A280B2844283B00CA
:100018000F08F0001008F1001108F200F3012100A8
:100028002408F0022508F13B2608F23B2708F33B99
:100038007308A3007208A2007108A1007008A0004C
:100048003B000F082100A4003B0010082100A50078
:100058003B0011082100A600A70122000D0D0D0D7F
:100068000139F0000130F006F00CF00C0D087006B4
:100078007F3970068D002100AC01AC0A2000931076
:100088007E10090080314828F601F701F801F901CE
:10009800A0308400003085002D308631FC26803168
:1000A8007E1020008531EC2D2000C9003A08CE00D2
:1000B8003B08CF003C08D0003D08D1003E08D200E4
:1000C8003F08D3004008D4004108D5004E308600D0
:1000D80000308700473FC200C21B732875280130D3
:1000E800762800302000C300C4014308CC0044082F
:1000F800CD004C084D04031982288328A128CE0975
:10010800CF09D009D109D209D309D409D509CE0A12
:10011800031DA128CF0A031DA128D00A031DA12869
:10012800D10A031DA128D20A031DA128D30A031D41
:10013800A128D40A031DA128D50AF71BA428A5289D
:10014800A928FD30F805FF30F9057708803A200026
:10015800C20080304202031DB32801307602031822
:10016800B628B728BD2801302000C7000030C800D5
:10017800C22877082000C8007608C70021002B088D
:100188002000CB0021002A082000CA004C084D049A
:10019800031DCF28D028D428781DD328D428D828C0
:1001A800FF30CA07FF30CB3D1F30D6000030D700E4
:1001B8002100CC014729FF302000D607FF30D73D6A
:1001C8000A30A000A101A201A301A401A501A60172
:1001D800A7014E08A8004F08A9005008AA00510816
:1001E800AB005208AC005308AD005408AE005508E7
:1001F800AF0084310C24803120002108B30020088E
:10020800B20086318126803120003208303EC2009B
:100218005608AD3E8600870142088100FF30C707B7
:10022800FF30C83DFF30CA07FF30CB3D0A30A00081
:10023800A101A201A301A401A501A601A7014E08DD
:10024800A8004F08A9005008AA005108AB0052089E
:10025800AC005308AD005408AE005508AF00833118
:100268000823803120002008CE002108CF00220872
:10027800D0002308D1002408D2002508D30026087E
:10028800D4002708D50020005708803AC2008030E3
:100298004202031D512901305602031C54295529D5
:1002A800812920004E084F0450045104520453047D
:1002B80054045504031D61296229DF284808803A3F
:1002C800C20080304202031D6B2901304702031827
:1002D8006E296F29DF2820004B08803AC200803041
:1002E8004202031D792901304A02031C7C297D2919
:1002F8008129F81880298129DF2820004C084D041D
:10030800031D872988298C29781D8B298C29A729E1
:10031800FF30D607FF30D73D4C084D04031D952903
:1003280096299B292B30C5000030C6009F292D3007
:10033800C5000030C6004508C2005608AD3E86001C
:100348008701420881005608AD3EC2004208AF004E
:100358004B08B1004A08B00049088531552580315D
:1003680020003008BB002F08BA0008002000E70072
:10037800580886008701403FDA00413FDB005A08F1
:1003880084005B0885001200253A031DCC29CD297D
:10039800E42A580886008701013081074131031893
:1003A800810A2100AA01AB01F801F901FF30F6002A
:1003B800FF30F7002000580886008701403FDA0028
:1003C800413FDB005A0884005B0885001200643A4C
:1003D8000319EF29F029012A580886008701403FB0
:1003E800DA00413FDB005A0884005B0885001200F0
:1003F800693A031D002A012A3C2A58088600870109
:100408000130810741310318810A590886008701A4
:1004180001088400850102308107003FDA00013FAE
:10042800DB005A08DF005B08E000890D893B890979
:10043800E100E200E300E400E500E6005F08BA003E
:100448006008BB006108BC006208BD006308BE000C
:100458006408BF006508C0006608C10067088031ED
:100468005820813120003B08D9003A08D800072BD2
:10047800580886008701403FA000413FA100023094
:10048800A2008730A3000230A4000030A500843108
:10049800F82481312000200821040319542A552A00
:1004A8006E2A580886008701403FA000413FA100FE
:1004B8000530A2008730A3000230A4000030A50058
:1004C8008431F8248131200020082104031D6D2A7D
:1004D8006E2AAF2A58088600870102308107413109
:1004E8000318810A590886008701010884008501DC
:1004F80004308107003FDA00013FDB00023FDC00E7
:10050800033FDD005A08DF005B08E0005C08E100FB
:100518005D08E2000030E21BFF30E300E400E50084
:10052800E6005F08BA006008BB006108BC0062080A
:10053800BD006308BE006408BF006508C000660807
:10054800C100670880315820813120003B08D9005C
:100558003A08D800072B580886008701403FDA0080
:10056800413FDB005A0884005B0885001200253AE9
:10057800031DBF2AC02AD92A5808860087010130DE
:10058800810741310318810A2530A0000030A100FD
:100598006708DA005A08A2008531AB25813101309D
:1005A8002000D8000030D900072B580886008701A2
:1005B8000130810741310318810AD801D901072B7D
:1005C800580886008701403FDA00413FDB005A089F
:1005D80084005B0885000008DC00DD015C08A000E1
:1005E8005D08A1006708DE005E08A2008531AB2522
:1005F8008131200058088600870101308107413188
:100608000318810AD32A08002000B101203086008F
:1006180000308700473FF400F41F132B142B362BB0
:100628002000A009A109A209A309A409A509A609EE
:10063800A709A00A031D332BA10A031D332BA20A05
:10064800031D332BA30A031D332BA40A031D332BCD
:10065800A50A031D332BA60A031D332BA70A200066
:10066800B101B10A2830860000308700473FF40006
:10067800F41F3F2B402B642B2000A809A909AA09C5
:10068800AB09AC09AD09AE09AF09A80A031D5F2B78
:10069800A90A031D5F2BAA0A031D5F2BAB0A031DC2
:1006A8005F2BAC0A031D5F2BAD0A031D5F2BAE0A3F
:1006B800031D5F2BAF0A0130F40074082000B10657
:1006C80032308600003087000830F40000301E0009
:1006D800F40B6B2B2000200821042204230424049B
:1006E80025042604270403197A2B7B2BD72BB0016A
:1006F800B00A8A2BA035A10DA20DA30DA40DA50D3E
:10070800A60DA70D0130F4007408B007A71F8D2BA4
:100718008E2B7E2BB235B30DB40DB50DB60DB70DBE
:10072800B80DB90D27082F02031DB42B26082E0279
:10073800031DB42B25082D02031DB42B24082C02FD
:10074800031DB42B23082B02031DB42B22082A02F5
:10075800031DB42B21082902031DB42B20082802ED
:10076800031CB72BB82BC92B2008A8022108A93BCA
:100778002208AA3B2308AB3B2408AC3B2508AD3B29
:100788002608AE3B2708AF3B3214A736A60CA50CAB
:10079800A40CA30CA20CA10CA00C0130B002031DE8
:1007A800D62BD72B8E2B31080319DB2BDC2BFA2BFE
:1007B800B209B309B409B509B609B709B809B9093D
:1007C800B20A031DFA2BB30A031DFA2BB40A031D40
:1007D800FA2BB50A031DFA2BB60A031DFA2BB70A22
:1007E800031DFA2BB80A031DFA2BB90A2000320898
:1007F800A0003308A1003408A2003508A300360879
:10080800A4003708A5003808A6003908A700080082
:100818002000B1012830860000308700473FF400EF
:10082800F41F172C182C3A2C2000A809A909AA098A
:10083800AB09AC09AD09AE09AF09A80A031D372CED
:10084800A90A031D372CAA0A031D372CAB0A031D5E
:10085800372CAC0A031D372CAD0A031D372CAE0A02
:10086800031D372CAF0A2000B101B10A20308600E1
:1008780000308700473FF400F41F432C442C632CBE
:100888002000A009A109A209A309A409A509A6098C
:10089800A709A00A031D632CA10A031D632CA20A41
:1008A800031D632CA30A031D632CA40A031D632CD8
:1008B800A50A031D632CA60A031D632CA70A2000A2
:1008C80020082104220423042404250426042704E0
:1008D80003196F2C702CC32CB001B00A7F2CA035E3
:1008E800A10DA20DA30DA40DA50DA60DA70D0130F8
:1008F800F4007408B007A71F822C832C732C2708D8
:100908002F02031DA12C26082E02031DA12C250849
:100918002D02031DA12C24082C02031DA12C230841
:100928002B02031DA12C22082A02031DA12C210839
:100938002902031DA12C20082802031CA42CA52C85
:10094800B52C2008A8022108A93B2208AA3B2308A5
:10095800AB3B2408AC3B2508AD3B2608AE3B27083B
:10096800AF3BA736A60CA50CA40CA30CA20CA10C9B
:10097800A00C0130B002031DC22CC32C832C3108FB
:100988000319C72CC82CE62CA809A909AA09AB0980
:10099800AC09AD09AE09AF09A80A031DE62CA90ADE
:1009A800031DE62CAA0A031DE62CAB0A031DE62C40
:1009B800AC0A031DE62CAD0A031DE62CAE0A031D86
:1009C800E62CAF0A20002808A0002908A1002A0860
:1009D800A2002B08A3002C08A4002D08A5002E08AF
:1009E800A6002F08A700080020002108A70020085B
:1009F800A6002308A9002208A8000130A40200309C
:100A0800A53B240A031D0C2D250A031D0C2D0D2DB5
:100A18001C2DA001A101542D0130A6070030A73DCF
:100A28000130A8070030A93D0130A4020030A53BE1
:100A3800260884002708850012000319242D252D77
:100A4800442D2808840029088500120003192D2D3B
:100A58002E2D442D240825040319332D342D442D1F
:100A680028088400290885000008F4002608840066
:100A780027088500000874060319432D442D102DFE
:100A880026088400270885000008F4002808840048
:100A98002908850000087402A000A101031CA10315
:100AA80008002000B700781C5A2D5B2D632D3708ED
:100AB800B2003208F5002F0886315926853120000A
:100AC800B11B672D682D6D2D3108B6003008B500B3
:100AD8006F2DB501B601B301B401832D203020007C
:100AE800A0000030A1003708B2003208A20085310A
:100AF800AB25853101302000B3070030B43D340800
:100B0800803AB2003608803A3202031D8D2D35082E
:100B18003302031C902D912D722D7818942D952D4C
:100B28009E2D20003708B2003208F5002F088631C4
:100B38005926853120002F0886319D2685312000D1
:100B480035087407AF003608753DB000080020006E
:100B580022080319B02DB12DB62D2208031DB52D7D
:100B6800B62DBB2D20088631F3268531EB2D2208C2
:100B7800033E86008701160001040319C42DC52D04
:100B8800E22D2208033E86008701403FA300413F33
:100B9800A400220A86008701403FA500413FA60025
:100BA8002608803AA7002408803A2702031DDE2D74
:100BB800230825020318E12DE22DEB2D2000220A3F
:100BC800860087010130810741310318810A080036
:100BD80021008D138C168E17FC30990578309904F6
:100BE80000000000000000008B170B172100931471
:100BF8008631E82685318631DC26853121002C08AE
:100C08000319072E082E022ECE30CD008630CE00D6
:100C18002308D2002208D1002108D0002008CF00E4
:100C28008631B726853103302100D6000830D5003B
:100C38007730890B1D2ED50B1D2ED60B1D2E2100AE
:100C4800AC01022E803146282000ED006908EF0033
:100C58006808EE002100A801A901462E6E30EB00BD
:100C68006B08D8006A08EC006C08D9006D0881315F
:100C7800BA218631200058082100A8072000590809
:100C88002100A93D20006E0884006F08850012002D
:100C9800031D4F2E502E322E210029082000E90076
:100CA800210028082000E80008002000AE00AC0160
:100CB800AD01712E2B08A800A9012808A000290859
:100CC800A1007508AA002A08A2008531AB25863143
:100CD80001302000AC070030AD3D2C082E07A800DD
:100CE8002808860087010108A9002908AB002B08FD
:100CF800031D7F2E802E5E2E080020003308803AC8
:100D0800B40080303402031D8B2E013032020318E8
:100D18008E2E8F2E9C2E20003209B4003309B50088
:100D2800B40A0319B50A3408B2003508B3009C2E7A
:100D380008002000A2002208A0002008A100A82E78
:100D48000130A0002008A2072208860087010108B8
:100D5800031DAF2EB02EA42E21082202F400F501A7
:100D6800F41BF5030800CF302100D3005308D4004A
:100D78004E082000E90021004D082000E800D4308A
:100D88002100D30053082000EA00003086312826CD
:100D98008631080053344D3454343134433450349C
:100DA80052343A34203425346C3464340A340034F0
:100DB80023009E161E159D179F159C0146309B000B
:100DC80012303D00A70008003B001908F039073829
:100DD80099009917191701309B0098170800F4001B
:100DE800740823009A009E1CFA2EFB2EF72E08008A
:100DF800640080010131890BFD2E00346C346434A9
:080E080000346C34693400343D
:020000040001F9
:08000000FF3FFF3FFF3FFF3F00
:06000E00FC3FFB3F9F3F99
:00000001FF
